{
  "address": "0x5FbDB2315678afecb367f032d93F642f64180aa3",
  "abi": [
    {
      "inputs": [
        {
          "internalType": "string",
          "name": "uri",
          "type": "string"
        }
      ],
      "stateMutability": "nonpayable",
      "type": "constructor"
    },
    {
      "anonymous": false,
      "inputs": [
        {
          "indexed": true,
          "internalType": "address",
          "name": "account",
          "type": "address"
        },
        {
          "indexed": true,
          "internalType": "address",
          "name": "operator",
          "type": "address"
        },
        {
          "indexed": false,
          "internalType": "bool",
          "name": "approved",
          "type": "bool"
        }
      ],
      "name": "ApprovalForAll",
      "type": "event"
    },
    {
      "anonymous": false,
      "inputs": [
        {
          "indexed": false,
          "internalType": "address",
          "name": "account",
          "type": "address"
        }
      ],
      "name": "Paused",
      "type": "event"
    },
    {
      "anonymous": false,
      "inputs": [
        {
          "indexed": true,
          "internalType": "bytes32",
          "name": "role",
          "type": "bytes32"
        },
        {
          "indexed": true,
          "internalType": "bytes32",
          "name": "previousAdminRole",
          "type": "bytes32"
        },
        {
          "indexed": true,
          "internalType": "bytes32",
          "name": "newAdminRole",
          "type": "bytes32"
        }
      ],
      "name": "RoleAdminChanged",
      "type": "event"
    },
    {
      "anonymous": false,
      "inputs": [
        {
          "indexed": true,
          "internalType": "bytes32",
          "name": "role",
          "type": "bytes32"
        },
        {
          "indexed": true,
          "internalType": "address",
          "name": "account",
          "type": "address"
        },
        {
          "indexed": true,
          "internalType": "address",
          "name": "sender",
          "type": "address"
        }
      ],
      "name": "RoleGranted",
      "type": "event"
    },
    {
      "anonymous": false,
      "inputs": [
        {
          "indexed": true,
          "internalType": "bytes32",
          "name": "role",
          "type": "bytes32"
        },
        {
          "indexed": true,
          "internalType": "address",
          "name": "account",
          "type": "address"
        },
        {
          "indexed": true,
          "internalType": "address",
          "name": "sender",
          "type": "address"
        }
      ],
      "name": "RoleRevoked",
      "type": "event"
    },
    {
      "anonymous": false,
      "inputs": [
        {
          "indexed": true,
          "internalType": "address",
          "name": "operator",
          "type": "address"
        },
        {
          "indexed": true,
          "internalType": "address",
          "name": "from",
          "type": "address"
        },
        {
          "indexed": true,
          "internalType": "address",
          "name": "to",
          "type": "address"
        },
        {
          "indexed": false,
          "internalType": "uint256[]",
          "name": "ids",
          "type": "uint256[]"
        },
        {
          "indexed": false,
          "internalType": "uint256[]",
          "name": "values",
          "type": "uint256[]"
        }
      ],
      "name": "TransferBatch",
      "type": "event"
    },
    {
      "anonymous": false,
      "inputs": [
        {
          "indexed": true,
          "internalType": "address",
          "name": "operator",
          "type": "address"
        },
        {
          "indexed": true,
          "internalType": "address",
          "name": "from",
          "type": "address"
        },
        {
          "indexed": true,
          "internalType": "address",
          "name": "to",
          "type": "address"
        },
        {
          "indexed": false,
          "internalType": "uint256",
          "name": "id",
          "type": "uint256"
        },
        {
          "indexed": false,
          "internalType": "uint256",
          "name": "value",
          "type": "uint256"
        }
      ],
      "name": "TransferSingle",
      "type": "event"
    },
    {
      "anonymous": false,
      "inputs": [
        {
          "indexed": false,
          "internalType": "string",
          "name": "value",
          "type": "string"
        },
        {
          "indexed": true,
          "internalType": "uint256",
          "name": "id",
          "type": "uint256"
        }
      ],
      "name": "URI",
      "type": "event"
    },
    {
      "anonymous": false,
      "inputs": [
        {
          "indexed": false,
          "internalType": "address",
          "name": "account",
          "type": "address"
        }
      ],
      "name": "Unpaused",
      "type": "event"
    },
    {
      "inputs": [],
      "name": "DEFAULT_ADMIN_ROLE",
      "outputs": [
        {
          "internalType": "bytes32",
          "name": "",
          "type": "bytes32"
        }
      ],
      "stateMutability": "view",
      "type": "function"
    },
    {
      "inputs": [],
      "name": "MINTER_ROLE",
      "outputs": [
        {
          "internalType": "bytes32",
          "name": "",
          "type": "bytes32"
        }
      ],
      "stateMutability": "view",
      "type": "function"
    },
    {
      "inputs": [],
      "name": "PAUSER_ROLE",
      "outputs": [
        {
          "internalType": "bytes32",
          "name": "",
          "type": "bytes32"
        }
      ],
      "stateMutability": "view",
      "type": "function"
    },
    {
      "inputs": [
        {
          "internalType": "address",
          "name": "account",
          "type": "address"
        },
        {
          "internalType": "uint256",
          "name": "id",
          "type": "uint256"
        }
      ],
      "name": "balanceOf",
      "outputs": [
        {
          "internalType": "uint256",
          "name": "",
          "type": "uint256"
        }
      ],
      "stateMutability": "view",
      "type": "function"
    },
    {
      "inputs": [
        {
          "internalType": "address[]",
          "name": "accounts",
          "type": "address[]"
        },
        {
          "internalType": "uint256[]",
          "name": "ids",
          "type": "uint256[]"
        }
      ],
      "name": "balanceOfBatch",
      "outputs": [
        {
          "internalType": "uint256[]",
          "name": "",
          "type": "uint256[]"
        }
      ],
      "stateMutability": "view",
      "type": "function"
    },
    {
      "inputs": [
        {
          "internalType": "address",
          "name": "account",
          "type": "address"
        },
        {
          "internalType": "uint256",
          "name": "id",
          "type": "uint256"
        },
        {
          "internalType": "uint256",
          "name": "value",
          "type": "uint256"
        }
      ],
      "name": "burn",
      "outputs": [],
      "stateMutability": "nonpayable",
      "type": "function"
    },
    {
      "inputs": [
        {
          "internalType": "address",
          "name": "account",
          "type": "address"
        },
        {
          "internalType": "uint256[]",
          "name": "ids",
          "type": "uint256[]"
        },
        {
          "internalType": "uint256[]",
          "name": "values",
          "type": "uint256[]"
        }
      ],
      "name": "burnBatch",
      "outputs": [],
      "stateMutability": "nonpayable",
      "type": "function"
    },
    {
      "inputs": [
        {
          "internalType": "bytes32",
          "name": "role",
          "type": "bytes32"
        }
      ],
      "name": "getRoleAdmin",
      "outputs": [
        {
          "internalType": "bytes32",
          "name": "",
          "type": "bytes32"
        }
      ],
      "stateMutability": "view",
      "type": "function"
    },
    {
      "inputs": [
        {
          "internalType": "bytes32",
          "name": "role",
          "type": "bytes32"
        },
        {
          "internalType": "uint256",
          "name": "index",
          "type": "uint256"
        }
      ],
      "name": "getRoleMember",
      "outputs": [
        {
          "internalType": "address",
          "name": "",
          "type": "address"
        }
      ],
      "stateMutability": "view",
      "type": "function"
    },
    {
      "inputs": [
        {
          "internalType": "bytes32",
          "name": "role",
          "type": "bytes32"
        }
      ],
      "name": "getRoleMemberCount",
      "outputs": [
        {
          "internalType": "uint256",
          "name": "",
          "type": "uint256"
        }
      ],
      "stateMutability": "view",
      "type": "function"
    },
    {
      "inputs": [
        {
          "internalType": "bytes32",
          "name": "role",
          "type": "bytes32"
        },
        {
          "internalType": "address",
          "name": "account",
          "type": "address"
        }
      ],
      "name": "grantRole",
      "outputs": [],
      "stateMutability": "nonpayable",
      "type": "function"
    },
    {
      "inputs": [
        {
          "internalType": "bytes32",
          "name": "role",
          "type": "bytes32"
        },
        {
          "internalType": "address",
          "name": "account",
          "type": "address"
        }
      ],
      "name": "hasRole",
      "outputs": [
        {
          "internalType": "bool",
          "name": "",
          "type": "bool"
        }
      ],
      "stateMutability": "view",
      "type": "function"
    },
    {
      "inputs": [
        {
          "internalType": "address",
          "name": "account",
          "type": "address"
        },
        {
          "internalType": "address",
          "name": "operator",
          "type": "address"
        }
      ],
      "name": "isApprovedForAll",
      "outputs": [
        {
          "internalType": "bool",
          "name": "",
          "type": "bool"
        }
      ],
      "stateMutability": "view",
      "type": "function"
    },
    {
      "inputs": [
        {
          "internalType": "address",
          "name": "to",
          "type": "address"
        },
        {
          "internalType": "uint256",
          "name": "id",
          "type": "uint256"
        },
        {
          "internalType": "uint256",
          "name": "amount",
          "type": "uint256"
        },
        {
          "internalType": "bytes",
          "name": "data",
          "type": "bytes"
        }
      ],
      "name": "mint",
      "outputs": [],
      "stateMutability": "nonpayable",
      "type": "function"
    },
    {
      "inputs": [
        {
          "internalType": "address",
          "name": "to",
          "type": "address"
        },
        {
          "internalType": "uint256[]",
          "name": "ids",
          "type": "uint256[]"
        },
        {
          "internalType": "uint256[]",
          "name": "amounts",
          "type": "uint256[]"
        },
        {
          "internalType": "bytes",
          "name": "data",
          "type": "bytes"
        }
      ],
      "name": "mintBatch",
      "outputs": [],
      "stateMutability": "nonpayable",
      "type": "function"
    },
    {
      "inputs": [],
      "name": "pause",
      "outputs": [],
      "stateMutability": "nonpayable",
      "type": "function"
    },
    {
      "inputs": [],
      "name": "paused",
      "outputs": [
        {
          "internalType": "bool",
          "name": "",
          "type": "bool"
        }
      ],
      "stateMutability": "view",
      "type": "function"
    },
    {
      "inputs": [
        {
          "internalType": "bytes32",
          "name": "role",
          "type": "bytes32"
        },
        {
          "internalType": "address",
          "name": "account",
          "type": "address"
        }
      ],
      "name": "renounceRole",
      "outputs": [],
      "stateMutability": "nonpayable",
      "type": "function"
    },
    {
      "inputs": [
        {
          "internalType": "bytes32",
          "name": "role",
          "type": "bytes32"
        },
        {
          "internalType": "address",
          "name": "account",
          "type": "address"
        }
      ],
      "name": "revokeRole",
      "outputs": [],
      "stateMutability": "nonpayable",
      "type": "function"
    },
    {
      "inputs": [
        {
          "internalType": "address",
          "name": "from",
          "type": "address"
        },
        {
          "internalType": "address",
          "name": "to",
          "type": "address"
        },
        {
          "internalType": "uint256[]",
          "name": "ids",
          "type": "uint256[]"
        },
        {
          "internalType": "uint256[]",
          "name": "amounts",
          "type": "uint256[]"
        },
        {
          "internalType": "bytes",
          "name": "data",
          "type": "bytes"
        }
      ],
      "name": "safeBatchTransferFrom",
      "outputs": [],
      "stateMutability": "nonpayable",
      "type": "function"
    },
    {
      "inputs": [
        {
          "internalType": "address",
          "name": "from",
          "type": "address"
        },
        {
          "internalType": "address",
          "name": "to",
          "type": "address"
        },
        {
          "internalType": "uint256",
          "name": "id",
          "type": "uint256"
        },
        {
          "internalType": "uint256",
          "name": "amount",
          "type": "uint256"
        },
        {
          "internalType": "bytes",
          "name": "data",
          "type": "bytes"
        }
      ],
      "name": "safeTransferFrom",
      "outputs": [],
      "stateMutability": "nonpayable",
      "type": "function"
    },
    {
      "inputs": [
        {
          "internalType": "address",
          "name": "operator",
          "type": "address"
        },
        {
          "internalType": "bool",
          "name": "approved",
          "type": "bool"
        }
      ],
      "name": "setApprovalForAll",
      "outputs": [],
      "stateMutability": "nonpayable",
      "type": "function"
    },
    {
      "inputs": [
        {
          "internalType": "bytes4",
          "name": "interfaceId",
          "type": "bytes4"
        }
      ],
      "name": "supportsInterface",
      "outputs": [
        {
          "internalType": "bool",
          "name": "",
          "type": "bool"
        }
      ],
      "stateMutability": "view",
      "type": "function"
    },
    {
      "inputs": [],
      "name": "unpause",
      "outputs": [],
      "stateMutability": "nonpayable",
      "type": "function"
    },
    {
      "inputs": [
        {
          "internalType": "uint256",
          "name": "",
          "type": "uint256"
        }
      ],
      "name": "uri",
      "outputs": [
        {
          "internalType": "string",
          "name": "",
          "type": "string"
        }
      ],
      "stateMutability": "view",
      "type": "function"
    }
  ],
  "transactionHash": "0xfdba2966f07633b189e603fdd3e778b486ee7e9f3fbb096d1a7175a6813abfa2",
  "args": [
    "https://themanymatts.lol/metadata/{id}.json"
  ],
  "solcInputHash": "cac8654b6b378064a86a6863603c0813",
  "bytecode": "0x60806040523480156200001157600080fd5b50604051620030fd380380620030fd833981810160405260208110156200003757600080fd5b81019080805160405193929190846401000000008211156200005857600080fd5b9083019060208201858111156200006e57600080fd5b82516401000000008111828201881017156200008957600080fd5b82525081516020918201929091019080838360005b83811015620000b85781810151838201526020016200009e565b50505050905090810190601f168015620000e65780820380516001836020036101000a031916815260200191505b5060405250829150819050620001036301ffc9a760e01b620001b9565b6200010e8162000241565b62000120636cdb3d1360e11b620001b9565b620001326303a24d0760e21b620001b9565b506005805460ff191690556200015360006200014d6200025a565b6200025e565b620001827f9f2df0fed2c77648de5860a4cc508cd0818c85b8b8a1ab4ceeef8d981c8956a66200014d6200025a565b620001b17f65d7a28e3265b37a6474929f336521b332c1681b933f6cb9f3376673440d862a6200014d6200025a565b505062000400565b6001600160e01b0319808216141562000219576040805162461bcd60e51b815260206004820152601c60248201527f4552433136353a20696e76616c696420696e7465726661636520696400000000604482015290519081900360640190fd5b6001600160e01b0319166000908152600160208190526040909120805460ff19169091179055565b80516200025690600490602084019062000364565b5050565b3390565b62000256828260008281526020818152604090912062000289918390620017db620002dd821b17901c565b156200025657620002996200025a565b6001600160a01b0316816001600160a01b0316837f2f8788117e7eff1d82e926ec794901d17c78024a50270940304540a733656f0d60405160405180910390a45050565b6000620002f4836001600160a01b038416620002fd565b90505b92915050565b60006200030b83836200034c565b6200034357508154600181810184556000848152602080822090930184905584548482528286019093526040902091909155620002f7565b506000620002f7565b60009081526001919091016020526040902054151590565b828054600181600116156101000203166002900490600052602060002090601f016020900481019282601f10620003a757805160ff1916838001178555620003d7565b82800160010185558215620003d7579182015b82811115620003d7578251825591602001919060010190620003ba565b50620003e5929150620003e9565b5090565b5b80821115620003e55760008155600101620003ea565b612ced80620004106000396000f3fe608060405234801561001057600080fd5b50600436106101325760003560e01c8062fdd58e1461013757806301ffc9a7146101755780630e89341c146101b05780631f7fdffa14610242578063248a9ca3146103fc5780632eb2c2d6146104195780632f2ff15d146105da57806336568abe146106065780633f4ba83a146106325780634e1273f41461063a5780635c975abb146107ad5780636b20c454146107b5578063731133e9146108e85780638456cb59146109a85780639010d07c146109b057806391d14854146109ef578063a217fddf14610a1b578063a22cb46514610a23578063ca15c87314610a51578063d539139314610a6e578063d547741f14610a76578063e63ab1e914610aa2578063e985e9c514610aaa578063f242432a14610ad8578063f5298aca14610ba1575b600080fd5b6101636004803603604081101561014d57600080fd5b506001600160a01b038135169060200135610bd3565b60408051918252519081900360200190f35b61019c6004803603602081101561018b57600080fd5b50356001600160e01b031916610c45565b604080519115158252519081900360200190f35b6101cd600480360360208110156101c657600080fd5b5035610c64565b6040805160208082528351818301528351919283929083019185019080838360005b838110156102075781810151838201526020016101ef565b50505050905090810190601f1680156102345780820380516001836020036101000a031916815260200191505b509250505060405180910390f35b6103fa6004803603608081101561025857600080fd5b6001600160a01b038235169190810190604081016020820135600160201b81111561028257600080fd5b82018360208201111561029457600080fd5b803590602001918460208302840111600160201b831117156102b557600080fd5b9190808060200260200160405190810160405280939291908181526020018383602002808284376000920191909152509295949360208101935035915050600160201b81111561030457600080fd5b82018360208201111561031657600080fd5b803590602001918460208302840111600160201b8311171561033757600080fd5b9190808060200260200160405190810160405280939291908181526020018383602002808284376000920191909152509295949360208101935035915050600160201b81111561038657600080fd5b82018360208201111561039857600080fd5b803590602001918460018302840111600160201b831117156103b957600080fd5b91908080601f016020809104026020016040519081016040528093929190818152602001838380828437600092019190915250929550610cfc945050505050565b005b6101636004803603602081101561041257600080fd5b5035610d68565b6103fa600480360360a081101561042f57600080fd5b6001600160a01b038235811692602081013590911691810190606081016040820135600160201b81111561046257600080fd5b82018360208201111561047457600080fd5b803590602001918460208302840111600160201b8311171561049557600080fd5b9190808060200260200160405190810160405280939291908181526020018383602002808284376000920191909152509295949360208101935035915050600160201b8111156104e457600080fd5b8201836020820111156104f657600080fd5b803590602001918460208302840111600160201b8311171561051757600080fd5b9190808060200260200160405190810160405280939291908181526020018383602002808284376000920191909152509295949360208101935035915050600160201b81111561056657600080fd5b82018360208201111561057857600080fd5b803590602001918460018302840111600160201b8311171561059957600080fd5b91908080601f016020809104026020016040519081016040528093929190818152602001838380828437600092019190915250929550610d7d945050505050565b6103fa600480360360408110156105f057600080fd5b50803590602001356001600160a01b031661106e565b6103fa6004803603604081101561061c57600080fd5b50803590602001356001600160a01b03166110d5565b6103fa611136565b61075d6004803603604081101561065057600080fd5b810190602081018135600160201b81111561066a57600080fd5b82018360208201111561067c57600080fd5b803590602001918460208302840111600160201b8311171561069d57600080fd5b9190808060200260200160405190810160405280939291908181526020018383602002808284376000920191909152509295949360208101935035915050600160201b8111156106ec57600080fd5b8201836020820111156106fe57600080fd5b803590602001918460208302840111600160201b8311171561071f57600080fd5b919080806020026020016040519081016040528093929190818152602001838360200280828437600092019190915250929550611195945050505050565b60408051602080825283518183015283519192839290830191858101910280838360005b83811015610799578181015183820152602001610781565b505050509050019250505060405180910390f35b61019c611280565b6103fa600480360360608110156107cb57600080fd5b6001600160a01b038235169190810190604081016020820135600160201b8111156107f557600080fd5b82018360208201111561080757600080fd5b803590602001918460208302840111600160201b8311171561082857600080fd5b9190808060200260200160405190810160405280939291908181526020018383602002808284376000920191909152509295949360208101935035915050600160201b81111561087757600080fd5b82018360208201111561088957600080fd5b803590602001918460208302840111600160201b831117156108aa57600080fd5b91908080602002602001604051908101604052809392919081815260200183836020028082843760009201919091525092955061128a945050505050565b6103fa600480360360808110156108fe57600080fd5b6001600160a01b038235169160208101359160408201359190810190608081016060820135600160201b81111561093457600080fd5b82018360208201111561094657600080fd5b803590602001918460018302840111600160201b8311171561096757600080fd5b91908080601f016020809104026020016040519081016040528093929190818152602001838380828437600092019190915250929550611303945050505050565b6103fa611364565b6109d3600480360360408110156109c657600080fd5b50803590602001356113c1565b604080516001600160a01b039092168252519081900360200190f35b61019c60048036036040811015610a0557600080fd5b50803590602001356001600160a01b03166113e0565b6101636113f8565b6103fa60048036036040811015610a3957600080fd5b506001600160a01b03813516906020013515156113fd565b61016360048036036020811015610a6757600080fd5b50356114ec565b610163611503565b6103fa60048036036040811015610a8c57600080fd5b50803590602001356001600160a01b0316611515565b61016361156e565b61019c60048036036040811015610ac057600080fd5b506001600160a01b0381358116916020013516611580565b6103fa600480360360a0811015610aee57600080fd5b6001600160a01b03823581169260208101359091169160408201359160608101359181019060a081016080820135600160201b811115610b2d57600080fd5b820183602082011115610b3f57600080fd5b803590602001918460018302840111600160201b83111715610b6057600080fd5b91908080601f0160208091040260200160405190810160405280939291908181526020018383808284376000920191909152509295506115ae945050505050565b6103fa60048036036060811015610bb757600080fd5b506001600160a01b038135169060208101359060400135611767565b60006001600160a01b038316610c1a5760405162461bcd60e51b815260040180806020018281038252602b81526020018061298a602b913960400191505060405180910390fd5b5060008181526002602090815260408083206001600160a01b03861684529091529020545b92915050565b6001600160e01b03191660009081526001602052604090205460ff1690565b60048054604080516020601f6002600019610100600188161502019095169490940493840181900481028201810190925282815260609390929091830182828015610cf05780601f10610cc557610100808354040283529160200191610cf0565b820191906000526020600020905b815481529060010190602001808311610cd357829003601f168201915b50505050509050919050565b610d1b600080516020612b5a833981519152610d166117f0565b6113e0565b610d565760405162461bcd60e51b8152600401808060200182810382526038815260200180612ad86038913960400191505060405180910390fd5b610d62848484846117f4565b50505050565b60009081526020819052604090206002015490565b8151835114610dbd5760405162461bcd60e51b8152600401808060200182810382526028815260200180612c406028913960400191505060405180910390fd5b6001600160a01b038416610e025760405162461bcd60e51b8152600401808060200182810382526025815260200180612a5e6025913960400191505060405180910390fd5b610e0a6117f0565b6001600160a01b0316856001600160a01b03161480610e355750610e3585610e306117f0565b611580565b610e705760405162461bcd60e51b8152600401808060200182810382526032815260200180612a836032913960400191505060405180910390fd5b6000610e7a6117f0565b9050610e8a818787878787611a37565b60005b8451811015610f90576000858281518110610ea457fe5b602002602001015190506000858381518110610ebc57fe5b60200260200101519050610f29816040518060600160405280602a8152602001612b10602a91396002600086815260200190815260200160002060008d6001600160a01b03166001600160a01b0316815260200190815260200160002054611a459092919063ffffffff16565b60008381526002602090815260408083206001600160a01b038e811685529252808320939093558a1681522054610f609082611adc565b60009283526002602090815260408085206001600160a01b038c1686529091529092209190915550600101610e8d565b50846001600160a01b0316866001600160a01b0316826001600160a01b031660008051602061289d8339815191528787604051808060200180602001838103835285818151815260200191508051906020019060200280838360005b83811015611004578181015183820152602001610fec565b50505050905001838103825284818151815260200191508051906020019060200280838360005b8381101561104357818101518382015260200161102b565b5050505090500194505050505060405180910390a4611066818787878787611b34565b505050505050565b60008281526020819052604090206002015461108c90610d166117f0565b6110c75760405162461bcd60e51b815260040180806020018281038252602f81526020018061293b602f913960400191505060405180910390fd5b6110d18282611db3565b5050565b6110dd6117f0565b6001600160a01b0316816001600160a01b03161461112c5760405162461bcd60e51b815260040180806020018281038252602f815260200180612c89602f913960400191505060405180910390fd5b6110d18282611e1c565b611150600080516020612b3a833981519152610d166117f0565b61118b5760405162461bcd60e51b815260040180806020018281038252603b815260200180612b7a603b913960400191505060405180910390fd5b611193611e85565b565b606081518351146111d75760405162461bcd60e51b8152600401808060200182810382526029815260200180612c176029913960400191505060405180910390fd5b606083516001600160401b03811180156111f057600080fd5b5060405190808252806020026020018201604052801561121a578160200160208202803683370190505b50905060005b84518110156112785761125985828151811061123857fe5b602002602001015185838151811061124c57fe5b6020026020010151610bd3565b82828151811061126557fe5b6020908102919091010152600101611220565b509392505050565b60055460ff165b90565b6112926117f0565b6001600160a01b0316836001600160a01b031614806112b857506112b883610e306117f0565b6112f35760405162461bcd60e51b8152600401808060200182810382526029815260200180612a056029913960400191505060405180910390fd5b6112fe838383611f25565b505050565b61131d600080516020612b5a833981519152610d166117f0565b6113585760405162461bcd60e51b8152600401808060200182810382526038815260200180612ad86038913960400191505060405180910390fd5b610d6284848484612181565b61137e600080516020612b3a833981519152610d166117f0565b6113b95760405162461bcd60e51b8152600401808060200182810382526039815260200180612bb56039913960400191505060405180910390fd5b611193612270565b60008281526020819052604081206113d990836122f3565b9392505050565b60008281526020819052604081206113d990836122ff565b600081565b816001600160a01b031661140f6117f0565b6001600160a01b031614156114555760405162461bcd60e51b8152600401808060200182810382526029815260200180612bee6029913960400191505060405180910390fd5b80600360006114626117f0565b6001600160a01b03908116825260208083019390935260409182016000908120918716808252919093529120805460ff1916921515929092179091556114a66117f0565b6001600160a01b03167f17307eab39ab6107e8899845ad3d59bd9653f200f220920489ca2b5937696c318360405180821515815260200191505060405180910390a35050565b6000818152602081905260408120610c3f90612314565b600080516020612b5a83398151915281565b60008281526020819052604090206002015461153390610d166117f0565b61112c5760405162461bcd60e51b8152600401808060200182810382526030815260200180612a2e6030913960400191505060405180910390fd5b600080516020612b3a83398151915281565b6001600160a01b03918216600090815260036020908152604080832093909416825291909152205460ff1690565b6001600160a01b0384166115f35760405162461bcd60e51b8152600401808060200182810382526025815260200180612a5e6025913960400191505060405180910390fd5b6115fb6117f0565b6001600160a01b0316856001600160a01b03161480611621575061162185610e306117f0565b61165c5760405162461bcd60e51b8152600401808060200182810382526029815260200180612a056029913960400191505060405180910390fd5b60006116666117f0565b90506116868187876116778861231f565b6116808861231f565b87611a37565b6116cd836040518060600160405280602a8152602001612b10602a913960008781526002602090815260408083206001600160a01b038d1684529091529020549190611a45565b60008581526002602090815260408083206001600160a01b038b811685529252808320939093558716815220546117049084611adc565b60008581526002602090815260408083206001600160a01b03808b168086529184529382902094909455805188815291820187905280518a84169386169260008051602061296a83398151915292908290030190a4611066818787878787612363565b61176f6117f0565b6001600160a01b0316836001600160a01b03161480611795575061179583610e306117f0565b6117d05760405162461bcd60e51b8152600401808060200182810382526029815260200180612a056029913960400191505060405180910390fd5b6112fe8383836124d4565b60006113d9836001600160a01b0384166125f5565b3390565b6001600160a01b0384166118395760405162461bcd60e51b8152600401808060200182810382526021815260200180612c686021913960400191505060405180910390fd5b81518351146118795760405162461bcd60e51b8152600401808060200182810382526028815260200180612c406028913960400191505060405180910390fd5b60006118836117f0565b905061189481600087878787611a37565b60005b84518110156119585761190f600260008784815181106118b357fe5b602002602001015181526020019081526020016000206000886001600160a01b03166001600160a01b03168152602001908152602001600020548583815181106118f957fe5b6020026020010151611adc90919063ffffffff16565b6002600087848151811061191f57fe5b602090810291909101810151825281810192909252604090810160009081206001600160a01b038b168252909252902055600101611897565b50846001600160a01b031660006001600160a01b0316826001600160a01b031660008051602061289d8339815191528787604051808060200180602001838103835285818151815260200191508051906020019060200280838360005b838110156119cd5781810151838201526020016119b5565b50505050905001838103825284818151815260200191508051906020019060200280838360005b83811015611a0c5781810151838201526020016119f4565b5050505090500194505050505060405180910390a4611a3081600087878787611b34565b5050505050565b61106686868686868661263f565b60008184841115611ad45760405162461bcd60e51b81526004018080602001828103825283818151815260200191508051906020019080838360005b83811015611a99578181015183820152602001611a81565b50505050905090810190601f168015611ac65780820380516001836020036101000a031916815260200191505b509250505060405180910390fd5b505050900390565b6000828201838110156113d9576040805162461bcd60e51b815260206004820152601b60248201527a536166654d6174683a206164646974696f6e206f766572666c6f7760281b604482015290519081900360640190fd5b611b46846001600160a01b0316612691565b1561106657836001600160a01b031663bc197c8187878686866040518663ffffffff1660e01b815260040180866001600160a01b03168152602001856001600160a01b03168152602001806020018060200180602001848103845287818151815260200191508051906020019060200280838360005b83811015611bd4578181015183820152602001611bbc565b50505050905001848103835286818151815260200191508051906020019060200280838360005b83811015611c13578181015183820152602001611bfb565b50505050905001848103825285818151815260200191508051906020019080838360005b83811015611c4f578181015183820152602001611c37565b50505050905090810190601f168015611c7c5780820380516001836020036101000a031916815260200191505b5098505050505050505050602060405180830381600087803b158015611ca157600080fd5b505af1925050508015611cc657506040513d6020811015611cc157600080fd5b505160015b611d5b57611cd26127f8565b80611cdd5750611d24565b60405162461bcd60e51b8152602060048201818152835160248401528351849391928392604401919085019080838360008315611a99578181015183820152602001611a81565b60405162461bcd60e51b81526004018080602001828103825260348152602001806128bd6034913960400191505060405180910390fd5b6001600160e01b0319811663bc197c8160e01b14611daa5760405162461bcd60e51b81526004018080602001828103825260288152602001806129136028913960400191505060405180910390fd5b50505050505050565b6000828152602081905260409020611dcb90826117db565b156110d157611dd86117f0565b6001600160a01b0316816001600160a01b0316837f2f8788117e7eff1d82e926ec794901d17c78024a50270940304540a733656f0d60405160405180910390a45050565b6000828152602081905260409020611e349082612697565b156110d157611e416117f0565b6001600160a01b0316816001600160a01b0316837ff6391f5c32d9c69d2a47ea670b442974b53935d1edc7fd64eb21e047a839171b60405160405180910390a45050565b611e8d611280565b611ed5576040805162461bcd60e51b815260206004820152601460248201527314185d5cd8589b194e881b9bdd081c185d5cd95960621b604482015290519081900360640190fd5b6005805460ff191690557f5db9ee0a495bf2e6ff9c91a7834c1ba4fdd244a5e8aa4e537bd38aeae4b073aa611f086117f0565b604080516001600160a01b039092168252519081900360200190a1565b6001600160a01b038316611f6a5760405162461bcd60e51b8152600401808060200182810382526023815260200180612ab56023913960400191505060405180910390fd5b8051825114611faa5760405162461bcd60e51b8152600401808060200182810382526028815260200180612c406028913960400191505060405180910390fd5b6000611fb46117f0565b9050611fd481856000868660405180602001604052806000815250611a37565b60005b83518110156120b257612069838281518110611fef57fe5b60200260200101516040518060600160405280602481526020016129b5602491396002600088868151811061202057fe5b602002602001015181526020019081526020016000206000896001600160a01b03166001600160a01b0316815260200190815260200160002054611a459092919063ffffffff16565b6002600086848151811061207957fe5b602090810291909101810151825281810192909252604090810160009081206001600160a01b038a168252909252902055600101611fd7565b5060006001600160a01b0316846001600160a01b0316826001600160a01b031660008051602061289d8339815191528686604051808060200180602001838103835285818151815260200191508051906020019060200280838360005b8381101561212757818101518382015260200161210f565b50505050905001838103825284818151815260200191508051906020019060200280838360005b8381101561216657818101518382015260200161214e565b5050505090500194505050505060405180910390a450505050565b6001600160a01b0384166121c65760405162461bcd60e51b8152600401808060200182810382526021815260200180612c686021913960400191505060405180910390fd5b60006121d06117f0565b90506121e2816000876116778861231f565b60008481526002602090815260408083206001600160a01b038916845290915290205461220f9084611adc565b60008581526002602090815260408083206001600160a01b03808b168086529184528285209590955581518981529283018890528151909486169260008051602061296a83398151915292908290030190a4611a3081600087878787612363565b612278611280565b156122bd576040805162461bcd60e51b815260206004820152601060248201526f14185d5cd8589b194e881c185d5cd95960821b604482015290519081900360640190fd5b6005805460ff191660011790557f62e78cea01bee320cd4e420270b5ea74000d11b0c9f74754ebdbfc544b05a258611f086117f0565b60006113d983836126ac565b60006113d9836001600160a01b038416612710565b6000610c3f82612728565b60408051600180825281830190925260609182919060208083019080368337019050509050828160008151811061235257fe5b602090810291909101015292915050565b612375846001600160a01b0316612691565b1561106657836001600160a01b031663f23a6e6187878686866040518663ffffffff1660e01b815260040180866001600160a01b03168152602001856001600160a01b0316815260200184815260200183815260200180602001828103825283818151815260200191508051906020019080838360005b838110156124045781810151838201526020016123ec565b50505050905090810190601f1680156124315780820380516001836020036101000a031916815260200191505b509650505050505050602060405180830381600087803b15801561245457600080fd5b505af192505050801561247957506040513d602081101561247457600080fd5b505160015b61248557611cd26127f8565b6001600160e01b0319811663f23a6e6160e01b14611daa5760405162461bcd60e51b81526004018080602001828103825260288152602001806129136028913960400191505060405180910390fd5b6001600160a01b0383166125195760405162461bcd60e51b8152600401808060200182810382526023815260200180612ab56023913960400191505060405180910390fd5b60006125236117f0565b9050612553818560006125358761231f565b61253e8761231f565b60405180602001604052806000815250611a37565b61259a826040518060600160405280602481526020016129b56024913960008681526002602090815260408083206001600160a01b038b1684529091529020549190611a45565b60008481526002602090815260408083206001600160a01b03808a168086529184528285209590955581518881529283018790528151939490939086169260008051602061296a83398151915292908290030190a450505050565b60006126018383612710565b61263757508154600181810184556000848152602080822090930184905584548482528286019093526040902091909155610c3f565b506000610c3f565b61264d868686868686611066565b612655611280565b156110665760405162461bcd60e51b815260040180806020018281038252602c8152602001806129d9602c913960400191505060405180910390fd5b3b151590565b60006113d9836001600160a01b03841661272c565b815460009082106126ee5760405162461bcd60e51b81526004018080602001828103825260228152602001806128f16022913960400191505060405180910390fd5b8260000182815481106126fd57fe5b9060005260206000200154905092915050565b60009081526001919091016020526040902054151590565b5490565b600081815260018301602052604081205480156127e8578354600019808301919081019060009087908390811061275f57fe5b906000526020600020015490508087600001848154811061277c57fe5b6000918252602080832090910192909255828152600189810190925260409020908401905586548790806127ac57fe5b60019003818190600052602060002001600090559055866001016000878152602001908152602001600020600090556001945050505050610c3f565b6000915050610c3f565b60e01c90565b600060443d101561280857611287565b600481823e6308c379a061281c82516127f2565b1461282657611287565b6040513d600319016004823e80513d6001600160401b0380831160248401831017156128555750505050611287565b8284019250825191508082111561286f5750505050611287565b503d8301602082840101111561288757505050611287565b601f01601f191681016020016040529150509056fe4a39dc06d4c0dbc64b70af90fd698a233a518aa5d07e595d983b8c0526c8f7fb455243313135353a207472616e7366657220746f206e6f6e2045524331313535526563656976657220696d706c656d656e746572456e756d657261626c655365743a20696e646578206f7574206f6620626f756e6473455243313135353a204552433131353552656365697665722072656a656374656420746f6b656e73416363657373436f6e74726f6c3a2073656e646572206d75737420626520616e2061646d696e20746f206772616e74c3d58168c5ae7397731d063d5bbf3d657854427343f4c083240f7aacaa2d0f62455243313135353a2062616c616e636520717565727920666f7220746865207a65726f2061646472657373455243313135353a206275726e20616d6f756e7420657863656564732062616c616e6365455243313135355061757361626c653a20746f6b656e207472616e73666572207768696c6520706175736564455243313135353a2063616c6c6572206973206e6f74206f776e6572206e6f7220617070726f766564416363657373436f6e74726f6c3a2073656e646572206d75737420626520616e2061646d696e20746f207265766f6b65455243313135353a207472616e7366657220746f20746865207a65726f2061646472657373455243313135353a207472616e736665722063616c6c6572206973206e6f74206f776e6572206e6f7220617070726f766564455243313135353a206275726e2066726f6d20746865207a65726f2061646472657373455243313135355072657365744d696e7465725061757365723a206d7573742068617665206d696e74657220726f6c6520746f206d696e74455243313135353a20696e73756666696369656e742062616c616e636520666f72207472616e7366657265d7a28e3265b37a6474929f336521b332c1681b933f6cb9f3376673440d862a9f2df0fed2c77648de5860a4cc508cd0818c85b8b8a1ab4ceeef8d981c8956a6455243313135355072657365744d696e7465725061757365723a206d75737420686176652070617573657220726f6c6520746f20756e7061757365455243313135355072657365744d696e7465725061757365723a206d75737420686176652070617573657220726f6c6520746f207061757365455243313135353a2073657474696e6720617070726f76616c2073746174757320666f722073656c66455243313135353a206163636f756e747320616e6420696473206c656e677468206d69736d61746368455243313135353a2069647320616e6420616d6f756e7473206c656e677468206d69736d61746368455243313135353a206d696e7420746f20746865207a65726f2061646472657373416363657373436f6e74726f6c3a2063616e206f6e6c792072656e6f756e636520726f6c657320666f722073656c66a26469706673582212203f96de27c6ebf3941db1ba015dcf427e050cc709ebe04794221825435879279264736f6c63430007030033",
  "devdoc": {
    "kind": "dev",
    "methods": {
      "balanceOf(address,uint256)": {
        "details": "See {IERC1155-balanceOf}. Requirements: - `account` cannot be the zero address."
      },
      "balanceOfBatch(address[],uint256[])": {
        "details": "See {IERC1155-balanceOfBatch}. Requirements: - `accounts` and `ids` must have the same length."
      },
      "getRoleAdmin(bytes32)": {
        "details": "Returns the admin role that controls `role`. See {grantRole} and {revokeRole}. To change a role's admin, use {_setRoleAdmin}."
      },
      "getRoleMember(bytes32,uint256)": {
        "details": "Returns one of the accounts that have `role`. `index` must be a value between 0 and {getRoleMemberCount}, non-inclusive. Role bearers are not sorted in any particular way, and their ordering may change at any point. WARNING: When using {getRoleMember} and {getRoleMemberCount}, make sure you perform all queries on the same block. See the following https://forum.openzeppelin.com/t/iterating-over-elements-on-enumerableset-in-openzeppelin-contracts/2296[forum post] for more information."
      },
      "getRoleMemberCount(bytes32)": {
        "details": "Returns the number of accounts that have `role`. Can be used together with {getRoleMember} to enumerate all bearers of a role."
      },
      "grantRole(bytes32,address)": {
        "details": "Grants `role` to `account`. If `account` had not been already granted `role`, emits a {RoleGranted} event. Requirements: - the caller must have ``role``'s admin role."
      },
      "hasRole(bytes32,address)": {
        "details": "Returns `true` if `account` has been granted `role`."
      },
      "isApprovedForAll(address,address)": {
        "details": "See {IERC1155-isApprovedForAll}."
      },
      "mint(address,uint256,uint256,bytes)": {
        "details": "Creates `amount` new tokens for `to`, of token type `id`. See {ERC1155-_mint}. Requirements: - the caller must have the `MINTER_ROLE`."
      },
      "mintBatch(address,uint256[],uint256[],bytes)": {
        "details": "xref:ROOT:erc1155.adoc#batch-operations[Batched] variant of {mint}."
      },
      "pause()": {
        "details": "Pauses all token transfers. See {ERC1155Pausable} and {Pausable-_pause}. Requirements: - the caller must have the `PAUSER_ROLE`."
      },
      "paused()": {
        "details": "Returns true if the contract is paused, and false otherwise."
      },
      "renounceRole(bytes32,address)": {
        "details": "Revokes `role` from the calling account. Roles are often managed via {grantRole} and {revokeRole}: this function's purpose is to provide a mechanism for accounts to lose their privileges if they are compromised (such as when a trusted device is misplaced). If the calling account had been granted `role`, emits a {RoleRevoked} event. Requirements: - the caller must be `account`."
      },
      "revokeRole(bytes32,address)": {
        "details": "Revokes `role` from `account`. If `account` had been granted `role`, emits a {RoleRevoked} event. Requirements: - the caller must have ``role``'s admin role."
      },
      "safeBatchTransferFrom(address,address,uint256[],uint256[],bytes)": {
        "details": "See {IERC1155-safeBatchTransferFrom}."
      },
      "safeTransferFrom(address,address,uint256,uint256,bytes)": {
        "details": "See {IERC1155-safeTransferFrom}."
      },
      "setApprovalForAll(address,bool)": {
        "details": "See {IERC1155-setApprovalForAll}."
      },
      "supportsInterface(bytes4)": {
        "details": "See {IERC165-supportsInterface}. Time complexity O(1), guaranteed to always use less than 30 000 gas."
      },
      "unpause()": {
        "details": "Unpauses all token transfers. See {ERC1155Pausable} and {Pausable-_unpause}. Requirements: - the caller must have the `PAUSER_ROLE`."
      },
      "uri(uint256)": {
        "details": "See {IERC1155MetadataURI-uri}. This implementation returns the same URI for *all* token types. It relies on the token type ID substitution mechanism https://eips.ethereum.org/EIPS/eip-1155#metadata[defined in the EIP]. Clients calling this function must replace the `\\{id\\}` substring with the actual token type ID."
      }
    },
    "version": 1
  },
  "userdoc": {
    "kind": "user",
    "methods": {},
    "version": 1
  },
  "storageLayout": {
    "storage": [
      {
        "astId": 22,
        "contract": "contracts/Stickers.sol:Stickers",
        "label": "_roles",
        "offset": 0,
        "slot": "0",
        "type": "t_mapping(t_bytes32,t_struct(RoleData)18_storage)"
      },
      {
        "astId": 296,
        "contract": "contracts/Stickers.sol:Stickers",
        "label": "_supportedInterfaces",
        "offset": 0,
        "slot": "1",
        "type": "t_mapping(t_bytes4,t_bool)"
      },
      {
        "astId": 917,
        "contract": "contracts/Stickers.sol:Stickers",
        "label": "_balances",
        "offset": 0,
        "slot": "2",
        "type": "t_mapping(t_uint256,t_mapping(t_address,t_uint256))"
      },
      {
        "astId": 923,
        "contract": "contracts/Stickers.sol:Stickers",
        "label": "_operatorApprovals",
        "offset": 0,
        "slot": "3",
        "type": "t_mapping(t_address,t_mapping(t_address,t_bool))"
      },
      {
        "astId": 925,
        "contract": "contracts/Stickers.sol:Stickers",
        "label": "_uri",
        "offset": 0,
        "slot": "4",
        "type": "t_string_storage"
      },
      {
        "astId": 3019,
        "contract": "contracts/Stickers.sol:Stickers",
        "label": "_paused",
        "offset": 0,
        "slot": "5",
        "type": "t_bool"
      }
    ],
    "types": {
      "t_address": {
        "encoding": "inplace",
        "label": "address",
        "numberOfBytes": "20"
      },
      "t_array(t_bytes32)dyn_storage": {
        "base": "t_bytes32",
        "encoding": "dynamic_array",
        "label": "bytes32[]",
        "numberOfBytes": "32"
      },
      "t_bool": {
        "encoding": "inplace",
        "label": "bool",
        "numberOfBytes": "1"
      },
      "t_bytes32": {
        "encoding": "inplace",
        "label": "bytes32",
        "numberOfBytes": "32"
      },
      "t_bytes4": {
        "encoding": "inplace",
        "label": "bytes4",
        "numberOfBytes": "4"
      },
      "t_mapping(t_address,t_bool)": {
        "encoding": "mapping",
        "key": "t_address",
        "label": "mapping(address => bool)",
        "numberOfBytes": "32",
        "value": "t_bool"
      },
      "t_mapping(t_address,t_mapping(t_address,t_bool))": {
        "encoding": "mapping",
        "key": "t_address",
        "label": "mapping(address => mapping(address => bool))",
        "numberOfBytes": "32",
        "value": "t_mapping(t_address,t_bool)"
      },
      "t_mapping(t_address,t_uint256)": {
        "encoding": "mapping",
        "key": "t_address",
        "label": "mapping(address => uint256)",
        "numberOfBytes": "32",
        "value": "t_uint256"
      },
      "t_mapping(t_bytes32,t_struct(RoleData)18_storage)": {
        "encoding": "mapping",
        "key": "t_bytes32",
        "label": "mapping(bytes32 => struct AccessControl.RoleData)",
        "numberOfBytes": "32",
        "value": "t_struct(RoleData)18_storage"
      },
      "t_mapping(t_bytes32,t_uint256)": {
        "encoding": "mapping",
        "key": "t_bytes32",
        "label": "mapping(bytes32 => uint256)",
        "numberOfBytes": "32",
        "value": "t_uint256"
      },
      "t_mapping(t_bytes4,t_bool)": {
        "encoding": "mapping",
        "key": "t_bytes4",
        "label": "mapping(bytes4 => bool)",
        "numberOfBytes": "32",
        "value": "t_bool"
      },
      "t_mapping(t_uint256,t_mapping(t_address,t_uint256))": {
        "encoding": "mapping",
        "key": "t_uint256",
        "label": "mapping(uint256 => mapping(address => uint256))",
        "numberOfBytes": "32",
        "value": "t_mapping(t_address,t_uint256)"
      },
      "t_string_storage": {
        "encoding": "bytes",
        "label": "string",
        "numberOfBytes": "32"
      },
      "t_struct(AddressSet)2785_storage": {
        "encoding": "inplace",
        "label": "struct EnumerableSet.AddressSet",
        "members": [
          {
            "astId": 2784,
            "contract": "contracts/Stickers.sol:Stickers",
            "label": "_inner",
            "offset": 0,
            "slot": "0",
            "type": "t_struct(Set)2520_storage"
          }
        ],
        "numberOfBytes": "64"
      },
      "t_struct(RoleData)18_storage": {
        "encoding": "inplace",
        "label": "struct AccessControl.RoleData",
        "members": [
          {
            "astId": 15,
            "contract": "contracts/Stickers.sol:Stickers",
            "label": "members",
            "offset": 0,
            "slot": "0",
            "type": "t_struct(AddressSet)2785_storage"
          },
          {
            "astId": 17,
            "contract": "contracts/Stickers.sol:Stickers",
            "label": "adminRole",
            "offset": 0,
            "slot": "2",
            "type": "t_bytes32"
          }
        ],
        "numberOfBytes": "96"
      },
      "t_struct(Set)2520_storage": {
        "encoding": "inplace",
        "label": "struct EnumerableSet.Set",
        "members": [
          {
            "astId": 2515,
            "contract": "contracts/Stickers.sol:Stickers",
            "label": "_values",
            "offset": 0,
            "slot": "0",
            "type": "t_array(t_bytes32)dyn_storage"
          },
          {
            "astId": 2519,
            "contract": "contracts/Stickers.sol:Stickers",
            "label": "_indexes",
            "offset": 0,
            "slot": "1",
            "type": "t_mapping(t_bytes32,t_uint256)"
          }
        ],
        "numberOfBytes": "64"
      },
      "t_uint256": {
        "encoding": "inplace",
        "label": "uint256",
        "numberOfBytes": "32"
      }
    }
  }
}